{
  "contractName": "Customer",
  "abi": [
    {
      "inputs": [],
      "payable": false,
      "stateMutability": "nonpayable",
      "type": "constructor",
      "signature": "constructor"
    },
    {
      "anonymous": false,
      "inputs": [
        {
          "indexed": false,
          "name": "idOrder",
          "type": "uint256"
        }
      ],
      "name": "OrderRaisedOrUpdated",
      "type": "event",
      "signature": "0xfd4b9f33f750059f7f0fea80cc0091c7788f7b097feddbd26b1e87482cad21f3"
    },
    {
      "constant": false,
      "inputs": [
        {
          "name": "itemName",
          "type": "bytes32"
        },
        {
          "name": "quantity",
          "type": "uint256"
        }
      ],
      "name": "purchaseItem",
      "outputs": [],
      "payable": false,
      "stateMutability": "nonpayable",
      "type": "function",
      "signature": "0x94193dd2"
    },
    {
      "constant": false,
      "inputs": [
        {
          "name": "idOrder",
          "type": "uint256"
        }
      ],
      "name": "recieveItem",
      "outputs": [],
      "payable": false,
      "stateMutability": "nonpayable",
      "type": "function",
      "signature": "0x0657de33"
    },
    {
      "constant": true,
      "inputs": [
        {
          "name": "idOrder",
          "type": "uint256"
        }
      ],
      "name": "getOrderDetails",
      "outputs": [
        {
          "name": "",
          "type": "bytes32"
        },
        {
          "name": "",
          "type": "uint256"
        },
        {
          "name": "",
          "type": "bool"
        }
      ],
      "payable": false,
      "stateMutability": "view",
      "type": "function",
      "signature": "0xec7dd7bb"
    },
    {
      "constant": true,
      "inputs": [],
      "name": "getNumberOfItemsPurchased",
      "outputs": [
        {
          "name": "",
          "type": "uint256"
        }
      ],
      "payable": false,
      "stateMutability": "view",
      "type": "function",
      "signature": "0xd103b02c"
    },
    {
      "constant": true,
      "inputs": [],
      "name": "getNumberOfItemsReceived",
      "outputs": [
        {
          "name": "",
          "type": "uint256"
        }
      ],
      "payable": false,
      "stateMutability": "view",
      "type": "function",
      "signature": "0x77c3d81b"
    }
  ],
  "bytecode": "0x608060405234801561001057600080fd5b5060408051808201909152600181527f4a6f686e20536e6f7700000000000000000000000000000000000000000000006020808301918252600080526002905290517fac33ff75c19e70fe83507db0d683fd3465c996598dc972688b7ace676c89077b55517fac33ff75c19e70fe83507db0d683fd3465c996598dc972688b7ace676c89077c556102bd806100a66000396000f3fe60806040526004361061006c5763ffffffff7c01000000000000000000000000000000000000000000000000000000006000350416630657de33811461007157806377c3d81b1461009d57806394193dd2146100c4578063d103b02c146100f4578063ec7dd7bb14610109575b600080fd5b34801561007d57600080fd5b5061009b6004803603602081101561009457600080fd5b5035610153565b005b3480156100a957600080fd5b506100b26101b1565b60408051918252519081900360200190f35b3480156100d057600080fd5b5061009b600480360360408110156100e757600080fd5b50803590602001356101b7565b34801561010057600080fd5b506100b2610261565b34801561011557600080fd5b506101336004803603602081101561012c57600080fd5b5035610267565b604080519384526020840192909252151582820152519081900360600190f35b6001805481018155600082815260036020908152604091829020600401805460ff1916909317909255805183815290517ffd4b9f33f750059f7f0fea80cc0091c7788f7b097feddbd26b1e87482cad21f3929181900390910190a150565b60015490565b60008054600180820183556040805160a08101825283815260208082018681528284018981526060840189815260808501898152888a526003808652998790209551865592519685019690965551600284015593519582019590955591516004909201805460ff1916921515929092179091558051828152905191927ffd4b9f33f750059f7f0fea80cc0091c7788f7b097feddbd26b1e87482cad21f392918290030190a1505050565b60005490565b600081815260036020819052604090912060028101549181015460049091015460ff16919390925056fea165627a7a72305820fe1986edd85b964240f1fa5cee3412759e332db829c62af03e9592a3e2eeeda10029",
  "source": "\npragma solidity ^0.5.0;\n\n\ncontract Customer {\n\n  /* Events */\n  event OrderRaisedOrUpdated(uint idOrder);\n\n  struct AvailableCustomer {\n    uint idCustomer;\n    bytes32 customerName;\n  }\n\n  struct Orderlog {\n    uint idOrder;\n    uint idCustomer;\n    bytes32 itemName;\n    uint quantity;\n    bool status;\n  }\n\n  // STATE Variables.\n  uint numberOfItemsPurchased;\n  uint numberOfItemsReceived;\n\n  // Mappings \n  mapping (uint => AvailableCustomer) customers;\n  mapping (uint => Orderlog) orderLogs;\n\n  /* Constructor */\n  constructor() public {\n      /* For the case of demo, adding a customer in constructor. You can take this idea and extend the contract to contain addCustomer section and hence maintain customerDB in the Blockchain! */\n      customers[0] = AvailableCustomer(1, \"John Snow\");\n  }\n\n  /* TRANSACTIONS */\n  function purchaseItem(bytes32 itemName, uint quantity) public {\n    uint idOrder = numberOfItemsPurchased++;\n    orderLogs[idOrder] = Orderlog(idOrder, 0, itemName, quantity, false);\n    emit OrderRaisedOrUpdated(idOrder);\n  }\n\n  function recieveItem(uint idOrder) public {\n      numberOfItemsReceived++;\n      orderLogs[idOrder].status = true;\n      emit OrderRaisedOrUpdated(idOrder);\n  }\n\n  /* GETTERS */\n  function getOrderDetails(uint idOrder) view public returns (bytes32, uint, bool){\n    /*returns itemName, quantity & completionStatus*/\n    return (orderLogs[idOrder].itemName, orderLogs[idOrder].quantity, orderLogs[idOrder].status);\n  }\n\n  function getNumberOfItemsPurchased() view public returns (uint) {\n    return numberOfItemsPurchased;\n  }\n\n  function getNumberOfItemsReceived() view public returns (uint) {\n    return numberOfItemsReceived;\n  }\n\n}",
  "sourcePath": "C:/Users/arwin/OneDrive/Desktop/Decentralized_eCom-master/backend/contracts/Customer.sol",
  "compiler": {
    "name": "solc",
    "version": "0.5.0+commit.1d4f565a.Emscripten.clang"
  },
  "schemaVersion": "3.0.1",
  "updatedAt": "2023-11-30T06:13:36.160Z",
  "devdoc": {
    "methods": {}
  },
  "userdoc": {
    "methods": {}
  }
}