{
  "contractName": "Supplier",
  "abi": [
    {
      "anonymous": false,
      "inputs": [
        {
          "indexed": false,
          "name": "idItem",
          "type": "uint256"
        }
      ],
      "name": "ItemAdded",
      "type": "event",
      "signature": "0x186760a37e06b130959978c68b5c592841caf4f64de1dc960b2c54cf454ca9dd"
    },
    {
      "anonymous": false,
      "inputs": [
        {
          "indexed": false,
          "name": "idOfCustomer",
          "type": "uint256"
        },
        {
          "indexed": false,
          "name": "idOrder",
          "type": "uint256"
        },
        {
          "indexed": false,
          "name": "status",
          "type": "bool"
        }
      ],
      "name": "ProcessAnOrder",
      "type": "event",
      "signature": "0x13c5c248f81aca9d8fa3643449bd2debad3b6ec68931a70443181d3e60352ee7"
    },
    {
      "constant": false,
      "inputs": [
        {
          "name": "itemName",
          "type": "bytes32"
        },
        {
          "name": "price",
          "type": "uint256"
        }
      ],
      "name": "addItem",
      "outputs": [],
      "payable": false,
      "stateMutability": "nonpayable",
      "type": "function",
      "signature": "0xe60451f4"
    },
    {
      "constant": false,
      "inputs": [
        {
          "name": "idOrder",
          "type": "uint256"
        },
        {
          "name": "idCustomer",
          "type": "uint256"
        }
      ],
      "name": "processOrder",
      "outputs": [],
      "payable": false,
      "stateMutability": "nonpayable",
      "type": "function",
      "signature": "0x804544c4"
    },
    {
      "constant": true,
      "inputs": [
        {
          "name": "idItem",
          "type": "uint256"
        }
      ],
      "name": "getItem",
      "outputs": [
        {
          "name": "",
          "type": "bytes32"
        },
        {
          "name": "",
          "type": "uint256"
        }
      ],
      "payable": false,
      "stateMutability": "view",
      "type": "function",
      "signature": "0x3129e773"
    },
    {
      "constant": true,
      "inputs": [
        {
          "name": "idOrder",
          "type": "uint256"
        }
      ],
      "name": "getStatus",
      "outputs": [
        {
          "name": "",
          "type": "bool"
        }
      ],
      "payable": false,
      "stateMutability": "view",
      "type": "function",
      "signature": "0x5c622a0e"
    },
    {
      "constant": true,
      "inputs": [],
      "name": "getTotalNumberOfAvailableItems",
      "outputs": [
        {
          "name": "",
          "type": "uint256"
        }
      ],
      "payable": false,
      "stateMutability": "view",
      "type": "function",
      "signature": "0x941e53a7"
    },
    {
      "constant": true,
      "inputs": [],
      "name": "getTotalNumberOfOrdersProcessed",
      "outputs": [
        {
          "name": "",
          "type": "uint256"
        }
      ],
      "payable": false,
      "stateMutability": "view",
      "type": "function",
      "signature": "0x3946abfd"
    }
  ],
  "bytecode": "0x608060405234801561001057600080fd5b5061031c806100206000396000f3fe6080604052600436106100775763ffffffff7c01000000000000000000000000000000000000000000000000000000006000350416633129e773811461007c5780633946abfd146100bf5780635c622a0e146100e6578063804544c414610124578063941e53a714610156578063e60451f41461016b575b600080fd5b34801561008857600080fd5b506100a66004803603602081101561009f57600080fd5b503561019b565b6040805192835260208301919091528051918290030190f35b3480156100cb57600080fd5b506100d46101b8565b60408051918252519081900360200190f35b3480156100f257600080fd5b506101106004803603602081101561010957600080fd5b50356101be565b604080519115158252519081900360200190f35b34801561013057600080fd5b506101546004803603604081101561014757600080fd5b50803590602001356101d6565b005b34801561016257600080fd5b506100d461026a565b34801561017757600080fd5b506101546004803603604081101561018e57600080fd5b5080359060200135610270565b600090815260026020819052604090912060018101549101549091565b60015490565b60009081526003602052604090206002015460ff1690565b6040805160608082018352838252602080830186815260018486018181526000898152600385528790209551865591518582015590516002909401805460ff19169415159490941790935582548301835583518581529081018690528084019290925291517f13c5c248f81aca9d8fa3643449bd2debad3b6ec68931a70443181d3e60352ee7929181900390910190a15050565b60005490565b60008054600180820183556040805160608101825283815260208082018881528284018881528688526002808452978590209351845590519483019490945592519401939093558251828152925191927f186760a37e06b130959978c68b5c592841caf4f64de1dc960b2c54cf454ca9dd929081900390910190a150505056fea165627a7a723058203c4d57924e5d1176576e86cbd78547fe8e3338a9ef07925c5d6856c4b40269d50029",
  "source": "\npragma solidity ^0.5.0;\n\ncontract Supplier {\n\n  /* Events */\n  event ItemAdded(uint idItem);\n  event ProcessAnOrder(uint idOfCustomer, uint idOrder, bool status);\n\n  struct Item {\n    uint idItem;\n    bytes32 itemName;\n    uint price;\n  }\n\n  struct Orderlog {\n    uint idOfCustomer;\n    uint idOrder; \n    bool status;\n  }\n\n  // STATE Variables.\n  uint numberOfItemsAvailableForSale;\n  uint numberOfOrdersProcessed;\n\n  // Mappings \n  mapping (uint => Item) items;\n  mapping (uint => Orderlog) orderLogs;\n\n\n  /* TRANSACTIONS */\n  function addItem(bytes32 itemName, uint price) public {\n    uint idItem = numberOfItemsAvailableForSale++;\n    items[idItem] = Item(idItem, itemName, price);\n    emit ItemAdded(idItem);\n  }\n\n  function processOrder(uint idOrder, uint idCustomer) public {\n    orderLogs[idOrder] = Orderlog(idCustomer, idOrder, true);\n    numberOfOrdersProcessed ++;\n    emit ProcessAnOrder(idCustomer, idOrder, true);\n  }\n\n  /* GETTERS */\n  function getItem(uint idItem) view public returns (bytes32, uint){\n    /*returns itemName and its price*/\n    return (items[idItem].itemName, items[idItem].price);\n  }\n\n  function getStatus(uint idOrder) view public returns (bool) {\n    /*returns completion status*/\n    return (orderLogs[idOrder].status);\n  }\n\n  function getTotalNumberOfAvailableItems() view public returns (uint) {\n    return numberOfItemsAvailableForSale;\n  }\n\n  function getTotalNumberOfOrdersProcessed() view public returns (uint){\n    return numberOfOrdersProcessed;\n  }\n\n}",
  "sourcePath": "C:/Users/arwin/OneDrive/Desktop/Decentralized_eCom-master/backend/contracts/Supplier.sol",
  "compiler": {
    "name": "solc",
    "version": "0.5.0+commit.1d4f565a.Emscripten.clang"
  },
  "schemaVersion": "3.0.1",
  "updatedAt": "2023-11-30T06:13:36.157Z",
  "devdoc": {
    "methods": {}
  },
  "userdoc": {
    "methods": {}
  }
}